:020000040800F2
:1000000000000120CD0C00081D0D00081D0D00088A
:100010001D0D00081D0D00081D0D0008000000004A
:100020000000000000000000000000001D0D00089E
:100030001D0D0008000000001D0D00081D0D00082A
:10004000000000001D0D00081D0D00081D0D00081A
:100050001D0D00081D0D0008050B0008410B0008D0
:100060001D0D00081D0D00081D0D000800000000FA
:100070000000000000000000000000000000000080
:1000800000000000000000001D0D0008000000003E
:100090000000000000000000000000001D0D00082E
:1000A0001D0D00081D0D00081D0D00081D0D000888
:1000B0001D0D00081D0D0008000000001D0D0008AA
:1000C0001D0D00081D0D00081D0D00081D0D000868
:1000D0001D0D0008000000000000000000000000EE
:1000E0001D0D00081D0D00081D0D0008000000007A
:1000F0000000000000000000000000000000000000
:10010000000000001D0D0008000000001D0D00088B
:1001100000000000000000000000000000000000DF
:1001200000000000000000000000000000000000CF
:1001300000000000000000000000000000000000BF
:100140000000000000000000000000001D0D00087D
:10015000000000000000000000000000000000009F
:100160001D0D00081D0D000800000000000000002B
:10017000000000000000000000000000000000007F
:10018000000000001D0D000800000000000000003D
:040190001D0D000839
:1001940010B5054C237833B9044B13B10448AFF3BD
:1001A40000800123237010BD7C04002000000000A7
:1001B400840E000808B5034B1BB103490348AFF391
:1001C400008008BD0000000080040020840E0008A8
:1001D40080B483B000AF7860084611461A460346DF
:1001E400FB700B46BB7013467B70204B1A6B7B78FD
:1001F400012101FA03F31D4913430B63BB78002B60
:1002040016D07B681A68FB785B00012101FA03F3BE
:100214001A437B681A607B681A68FB785B000133B9
:10022400012101FA03F3DB431A407B681A6016E0EC
:100234007B681A68FB785B00012101FA03F3DB4356
:100244001A407B681A607B681A68FB785B0001338C
:10025400012101FA03F3DB431A407B681A6000BFF3
:100264000C37BD465DF8047B704700BF0038024080
:1002740080B483B000AF78600B46FB701346BB704C
:100284007B681A68FB785B00012101FA03F31340D1
:10029400002B18D0BB78002B09D07B685A69FB78F7
:1002A400012101FA03F31A437B685A6109E07B6870
:1002B4005A69FB78012101FA03F3DB431A407B6896
:1002C4005A61002300E0012318460C37BD465DF84F
:1002D400047B704780B584B000AF7860084611464F
:1002E4001A460346FB700B46BB7013467B707B7843
:1002F400B97800227868FFF76BFF7B68DA68BB780F
:100304005B00012101FA03F31A437B68DA607B681E
:10031400DA68BB785B000133012101FA03F3DB43A4
:100324001A407B68DA60BE4B5B6CBD4A43F4804381
:100334005364BC4B1A68BB78012101FA03F3B94931
:1003440013430B60B74BDA68BB78012101FA03F35E
:10035400B4491343CB60B44B1A68BB78063301210C
:1003640001FA03F3B04913430B60BB78032B04D8A1
:10037400BB78FB730023BB7322E0BB78032B08D943
:10038400BB78072B05D8BB78043BFB730123BB73F5
:1003940016E0BB78072B08D9BB780B2B05D8BB78A4
:1003A400083BFB730223BB730AE0BB780B2B07D912
:1003B400BB780F2B04D8BB780C3BFB730323BB73B4
:1003C400FB78413B072B00F2BB8101A252F823F0DA
:1003D400F503000885040008110500089D050008C0
:1003E400350600084507000845070008C10600084F
:1003F4008E4ABB7B023352F82310FB7B9B00012205
:1004040002FA03F3DA438948BB7B0A40023340F81B
:100414002320864ABB7B023352F82310FB7B9B00CC
:100424000133012202FA03F3DA438048BB7B0A401A
:10043400023340F823207D4ABB7B023352F8231059
:10044400FB7B9B000233012202FA03F3DA43774871
:10045400BB7B0A40023340F82320744ABB7B02333F
:1004640052F82310FB7B9B000333012202FA03F3AF
:10047400DA436E48BB7B0A40023340F823205FE135
:100484006A4ABB7B023352F82310FB7B9B00012298
:100494009A406648BB7B0A43023340F82320634AF0
:1004A400BB7B023352F82310FB7B9B0001330122F8
:1004B40002FA03F3DA435D48BB7B0A40023340F897
:1004C40023205A4ABB7B023352F82310FB7B9B0048
:1004D4000233012202FA03F3DA435448BB7B0A4095
:1004E400023340F82320514ABB7B023352F82310D5
:1004F400FB7B9B000333012202FA03F3DA434B48EC
:10050400BB7B0A40023340F8232019E1474ABB7BF6
:10051400023352F82310FB7B9B00012202FA03F3FF
:10052400DA434248BB7B0A40023340F823203F4A67
:10053400BB7B023352F82310FB7B9B000133012267
:100544009A403A48BB7B0A43023340F82320374A97
:10055400BB7B023352F82310FB7B9B000233012246
:1005640002FA03F3DA433148BB7B0A40023340F812
:1005740023202E4ABB7B023352F82310FB7B9B00C3
:100584000333012202FA03F3DA432848BB7B0A400F
:10059400023340F82320D3E0244ABB7B023352F8D1
:1005A4002310FB7B9B0001229A402048BB7B0A431B
:1005B400023340F823201D4ABB7B023352F8231038
:1005C400FB7B9B00013301229A401848BB7B0A4302
:1005D400023340F82320154ABB7B023352F8231020
:1005E400FB7B9B000233012202FA03F3DA430F4838
:1005F400BB7B0A40023340F823200C4ABB7B023306
:1006040052F82310FB7B9B000333012202FA03F30D
:10061400DA430648BB7B0A40023340F823208FE0CC
:1006240000380240003C014000E100E00038014095
:10063400454ABB7B023352F82310FB7B9B0001220B
:1006440002FA03F3DA434048BB7B0A40023340F822
:1006540023203D4ABB7B023352F82310FB7B9B00D3
:100664000133012202FA03F3DA433748BB7B0A4021
:10067400023340F82320344ABB7B023352F8231060
:10068400FB7B9B00023301229A402F48BB7B0A4329
:10069400023340F823202C4ABB7B023352F8231048
:1006A400FB7B9B000333012202FA03F3DA4326485F
:1006B400BB7B0A40023340F8232041E0224ABB7B43
:1006C400023352F82310FB7B9B0001229A401E4800
:1006D400BB7B0A43023340F823201B4ABB7B023313
:1006E40052F82310FB7B9B00013301229A401648E9
:1006F400BB7B0A43023340F82320134ABB7B0233FB
:1007040052F82310FB7B9B00023301229A400E48CF
:10071400BB7B0A43023340F823200B4ABB7B0233E2
:1007240052F82310FB7B9B000333012202FA03F3EC
:10073400DA430548BB7B0A40023340F8232000BF5C
:1007440000BF1037BD4680BD0038014080B596B06B
:1007540000AF0346FB71A44B1A78FB791344DAB259
:10076400A14B1A70A04B1B78092B00F28C8101A2BB
:1007740052F823F0A1070008E70700082F08000833
:1007840077080008BF080008070900085109000895
:100794009B090008E5090008410A000808237B6555
:1007A4000CE07B6DD9B27B6D083B904AD35C1A4652
:1007B4008F48FFF75DFD7B6D01337B657B6D0D2BF2
:1007C400EFDD01220F218A48FFF752FD00233B652C
:1007D40002E03B6D01333B653B6D864A9342F8DD95
:1007E40051E10823FB640DE0FB6CD9B2FB6C083BC0
:1007F4007E4A1344DB791A467D48FFF739FDFB6CCA
:100804000133FB64FB6C0D2BEEDD01220F217848D4
:10081400FFF72EFD0023BB6402E0BB6C0133BB6415
:10082400BB6C744A9342F8DD2DE108237B640DE030
:100834007B6CD9B27B6C083B6C4A13449B7B1A4695
:100844006B48FFF715FD7B6C01337B647B6C0D2BD0
:10085400EEDD00220F216648FFF70AFD00233B640A
:1008640002E03B6C01333B643B6C624A9342F8DD2B
:1008740009E10823FB630DE0FB6BD9B2FB6B083B7A
:100884005A4A13445B7D1A465948FFF7F1FCFB6B47
:100894000133FB63FB6B0D2BEEDD00220F2154486B
:1008A400FFF7E6FC0023BB6302E0BB6B0133BB63D1
:1008B400BB6B504A9342F8DDE5E008237B630DE00F
:1008C4007B6BD9B27B6B083B484A13441B7F1A46A7
:1008D4004748FFF7CDFC7B6B01337B637B6B0D2BB0
:1008E400EEDD00220F214248FFF7C2FC00233B63E8
:1008F40002E03B6B01333B633B6B3E4A9342F8DDC2
:10090400C1E00823FB620EE0FB6AD9B2FB6A083B34
:10091400364A134493F823301A463548FFF7A8FCA7
:10092400FB6A0133FB62FB6A0D2BEDDD00220F2114
:100934002F48FFF79DFC0023BB6202E0BB6A013332
:10094400BB62BB6A2B4A9342F8DD9CE008237B62BE
:100954000EE07B6AD9B27B6A083B244A134493F8BD
:100964002A301A462248FFF783FC7B6A01337B62F4
:100974007B6A0D2BEDDD00220F211D48FFF778FC6B
:1009840000233B6202E03B6A01333B623B6A194A43
:100994009342F8DD77E00823FB610EE0FB69D9B2EE
:1009A400FB69083B114A134493F831301A46104846
:1009B400FFF75EFCFB690133FB61FB690D2BEDDD89
:1009C40001220F210A48FFF753FC0023BB6102E018
:1009D400BB690133BB61BB69064A9342F8DD52E04F
:1009E40008237B6117E000BF000000200400002002
:1009F400000002401FA107007B69D9B27B69083B54
:100A0400234A134493F838301A462248FFF730FC3F
:100A14007B6901337B617B690D2BEDDD00220F21A6
:100A24001C48FFF725FC00233B6102E03B690133CE
:100A34003B613B69184A9342F8DD24E00823FB60DC
:100A44000EE0FB68D9B2FB68083B114A134493F8E3
:100A54003F301A460F48FFF70BFCFB680133FB607D
:100A6400FB680D2BEDDD00220F210A48FFF700FC87
:100A74000023BB6002E0BB680133BB60BB68064A6D
:100A84009342F8DD00BF00BF5837BD4680BD00BFAC
:100A940004000020000002401FA1070080B582B0BE
:100AA40000AF08237B6009E07B68D9B200230122F0
:100AB4000D48FFF78DFB7B6801337B607B680D2B52
:100AC400F2DD002301220F210748FFF781FB0123F8
:100AD400002242210548FFF7FDFB012301224221A8
:100AE4000248FFF7F7FBFEE7000002400004024063
:100AF40080B500AF0120FFF729FE00BF80BD0000D4
:100B040080B500AF084BD3F88030074A43F0800328
:100B1400C2F88030FFF7ECFF034B1B68024A43F036
:100B24008003136000BF80BD00E100E080B500AF2A
:100B3400FF20FFF70BFE00BF80BD000080B500AFB3
:100B4400084BD3F88030074A43F04003C2F88030A2
:100B5400FFF7ECFF034B1B68024A43F040031360AA
:100B640000BF80BD00E100E080B500AF164BD3F8B4
:100B74008830154A43F47003C2F88830134B1B685D
:100B8400124A43F001031360104B00229A600F4B8A
:100B94001B680E4A23F0847323F4803313600B4BD9
:100BA4000B4A5A60094B1B68084A23F480231360DC
:100BB400064B0022DA6000F00DF8034B4FF00062A0
:100BC4009A6000BF80BD00BF00ED00E00038024025
:100BD4001030002480B483B000AF00237B60002376
:100BE4003B60354B1B68344A43F480331360324B0B
:100BF4001B6803F400333B607B6801337B603B6814
:100C0400002B03D17B68B3F5A04FF0D12A4B1B68AE
:100C140003F40033002B02D001233B6001E00023E6
:100C24003B603B68012B40D1234B1B6C224A43F0B1
:100C340080531364214B1B68204A43F440431360E0
:100C44001D4B1D4A9B6893601B4B1B4A9B6893601A
:100C5400194B9B68184A43F480539360164B184A07
:100C64005A60154B1B68144A43F08073136000BF2D
:100C7400114B1B6803F00073002BF9D0114B40F2A9
:100C840002721A600C4B9B680B4A23F003039360B7
:100C9400094B9B68084A43F00203936000BF064B6C
:100CA4009B6803F00C03082BF9D100BF0C37BD4639
:100CB4005DF8047B704700BF0038024000700040BC
:100CC40019544107003C02400D4885460D480E4921
:100CD4000E4A002302E0D458C4500433C4188C4292
:100CE400F9D30B4A0B4C002301E013600432A242F7
:100CF400FBD3FFF739FF00F011F8FFF7CFFEFEE753
:100D040000000120000000207C040020AC0E00083C
:100D14007C040020BC040020FEE7000070B50D4EEA
:100D24000D4D761BB61006D00024013455F8043B53
:100D34009847A642F9D1094E094D761B00F0A0F858
:100D4400B61006D00024013455F8043B9847A64257
:100D5400F9D170BDA00E0008A00E0008A80E00086E
:100D6400A00E0008024B13B1024800F005B870470A
:100D740000000000890D0008002301461A461846A9
:100D840000F01EB838B50A4C0A4D641BA4100AD0F2
:100D940004F18043013B05EB8305013C55F804391C
:100DA4009847002CF9D1BDE8384000F06FB800BF77
:100DB400AC0E0008A80E0008704700BF704700BFC3
:100DC4002DE9F8432B4D0646286898460F46914670
:100DD400FFF7F2FF284B1C68D4F84831002B3DD0B4
:100DE4005A681F2A0DDC02F1010C16BB0232C3F84B
:100DF40004C0286843F82270FFF7E0FF0020BDE834
:100E0400F8831E4B7BB34FF4C870AFF300800346E6
:100E140048B3D4F848210021C0E900214FF0010C67
:100E2400C4F848010A46C0F88811C0F88C11002E95
:100E3400DCD003EB82010124C1F88890D3F8880147
:100E440094402043022EC3F88801C1F80881CDD113
:100E5400D3F88C110C43C3F88C41C7E704F5A6738F
:100E6400C4F84831BCE72868FFF7A8FF4FF0FF300B
:100E7400C5E700BF780400209C0E000800000000B5
:100E8400F8B500BFF8BC08BC9E467047F8B500BF73
:080E9400F8BC08BC9E46704743
:040E9C0050000020E2
:080EA000690D0008B90100080A
:040EA80095010008A8
:100EAC00080000000000000000000101000001012A
:100EBC000101000001000001000000000001010020
:100ECC000100000101000000010000010000000110
:100EDC000000000000000000010101010000000002
:100EEC0000000000000000010000000000000000F5
:100EFC00000000003C030020A40300200C04002090
:100F0C0000000000000000000000000000000000D5
:100F1C0000000000000000000000000000000000C5
:100F2C0000000000000000000000000000000000B5
:100F3C0000000000000000000000000000000000A5
:100F4C000000000000000000000000000000000095
:100F5C000000000000000000000000000000000085
:100F6C000000000000000000000000000000000075
:100F7C000000000000000000000000000000000065
:100F8C000000000000000000000000000000000055
:100F9C000000000000000000010000000000000044
:100FAC000E33CDAB34126DE6ECDE05000B00000009
:100FBC000000000000000000000000000000000025
:100FCC000000000000000000000000000000000015
:100FDC000000000000000000000000000000000005
:100FEC0000000000000000000000000000000000F5
:0C131C0000000000000000009804002009
:0400000508000CCD16
:00000001FF
